{
  "_format": "hh-sol-artifact-1",
  "contractName": "LearnChain",
  "sourceName": "contracts/LearnChain.sol",
  "abi": [
    {
      "inputs": [],
      "stateMutability": "nonpayable",
      "type": "constructor"
    },
    {
      "inputs": [
        {
          "internalType": "address",
          "name": "spender",
          "type": "address"
        },
        {
          "internalType": "uint256",
          "name": "allowance",
          "type": "uint256"
        },
        {
          "internalType": "uint256",
          "name": "needed",
          "type": "uint256"
        }
      ],
      "name": "ERC20InsufficientAllowance",
      "type": "error"
    },
    {
      "inputs": [
        {
          "internalType": "address",
          "name": "sender",
          "type": "address"
        },
        {
          "internalType": "uint256",
          "name": "balance",
          "type": "uint256"
        },
        {
          "internalType": "uint256",
          "name": "needed",
          "type": "uint256"
        }
      ],
      "name": "ERC20InsufficientBalance",
      "type": "error"
    },
    {
      "inputs": [
        {
          "internalType": "address",
          "name": "approver",
          "type": "address"
        }
      ],
      "name": "ERC20InvalidApprover",
      "type": "error"
    },
    {
      "inputs": [
        {
          "internalType": "address",
          "name": "receiver",
          "type": "address"
        }
      ],
      "name": "ERC20InvalidReceiver",
      "type": "error"
    },
    {
      "inputs": [
        {
          "internalType": "address",
          "name": "sender",
          "type": "address"
        }
      ],
      "name": "ERC20InvalidSender",
      "type": "error"
    },
    {
      "inputs": [
        {
          "internalType": "address",
          "name": "spender",
          "type": "address"
        }
      ],
      "name": "ERC20InvalidSpender",
      "type": "error"
    },
    {
      "anonymous": false,
      "inputs": [
        {
          "indexed": true,
          "internalType": "address",
          "name": "owner",
          "type": "address"
        },
        {
          "indexed": true,
          "internalType": "address",
          "name": "spender",
          "type": "address"
        },
        {
          "indexed": false,
          "internalType": "uint256",
          "name": "value",
          "type": "uint256"
        }
      ],
      "name": "Approval",
      "type": "event"
    },
    {
      "anonymous": false,
      "inputs": [
        {
          "indexed": true,
          "internalType": "address",
          "name": "from",
          "type": "address"
        },
        {
          "indexed": true,
          "internalType": "address",
          "name": "to",
          "type": "address"
        },
        {
          "indexed": false,
          "internalType": "uint256",
          "name": "value",
          "type": "uint256"
        }
      ],
      "name": "Transfer",
      "type": "event"
    },
    {
      "inputs": [
        {
          "internalType": "address",
          "name": "newMember",
          "type": "address"
        }
      ],
      "name": "addMember",
      "outputs": [],
      "stateMutability": "nonpayable",
      "type": "function"
    },
    {
      "inputs": [
        {
          "internalType": "address",
          "name": "owner",
          "type": "address"
        },
        {
          "internalType": "address",
          "name": "spender",
          "type": "address"
        }
      ],
      "name": "allowance",
      "outputs": [
        {
          "internalType": "uint256",
          "name": "",
          "type": "uint256"
        }
      ],
      "stateMutability": "view",
      "type": "function"
    },
    {
      "inputs": [
        {
          "internalType": "address",
          "name": "spender",
          "type": "address"
        },
        {
          "internalType": "uint256",
          "name": "value",
          "type": "uint256"
        }
      ],
      "name": "approve",
      "outputs": [
        {
          "internalType": "bool",
          "name": "",
          "type": "bool"
        }
      ],
      "stateMutability": "nonpayable",
      "type": "function"
    },
    {
      "inputs": [
        {
          "internalType": "address",
          "name": "account",
          "type": "address"
        }
      ],
      "name": "balanceOf",
      "outputs": [
        {
          "internalType": "uint256",
          "name": "",
          "type": "uint256"
        }
      ],
      "stateMutability": "view",
      "type": "function"
    },
    {
      "inputs": [
        {
          "internalType": "address",
          "name": "",
          "type": "address"
        }
      ],
      "name": "balances",
      "outputs": [
        {
          "internalType": "uint256",
          "name": "",
          "type": "uint256"
        }
      ],
      "stateMutability": "view",
      "type": "function"
    },
    {
      "inputs": [
        {
          "internalType": "uint256",
          "name": "_proposalId",
          "type": "uint256"
        }
      ],
      "name": "completeProposalVoting",
      "outputs": [],
      "stateMutability": "nonpayable",
      "type": "function"
    },
    {
      "inputs": [
        {
          "internalType": "string",
          "name": "_name",
          "type": "string"
        },
        {
          "internalType": "string",
          "name": "_description",
          "type": "string"
        },
        {
          "internalType": "uint256",
          "name": "_votingWeakPeriod",
          "type": "uint256"
        }
      ],
      "name": "createProposal",
      "outputs": [],
      "stateMutability": "nonpayable",
      "type": "function"
    },
    {
      "inputs": [],
      "name": "decimals",
      "outputs": [
        {
          "internalType": "uint8",
          "name": "",
          "type": "uint8"
        }
      ],
      "stateMutability": "view",
      "type": "function"
    },
    {
      "inputs": [
        {
          "internalType": "uint256",
          "name": "_proposalId",
          "type": "uint256"
        }
      ],
      "name": "execution",
      "outputs": [],
      "stateMutability": "nonpayable",
      "type": "function"
    },
    {
      "inputs": [],
      "name": "getCompletedProposals",
      "outputs": [
        {
          "components": [
            {
              "internalType": "uint256",
              "name": "id",
              "type": "uint256"
            },
            {
              "internalType": "string",
              "name": "name",
              "type": "string"
            },
            {
              "internalType": "string",
              "name": "description",
              "type": "string"
            },
            {
              "internalType": "uint256",
              "name": "votedYes",
              "type": "uint256"
            },
            {
              "internalType": "uint256",
              "name": "votedNo",
              "type": "uint256"
            },
            {
              "internalType": "uint256",
              "name": "votingPeriod",
              "type": "uint256"
            },
            {
              "internalType": "address",
              "name": "owner",
              "type": "address"
            },
            {
              "internalType": "uint256",
              "name": "voteCount",
              "type": "uint256"
            },
            {
              "internalType": "uint256",
              "name": "completedOn",
              "type": "uint256"
            },
            {
              "internalType": "bool",
              "name": "isComplete",
              "type": "bool"
            },
            {
              "internalType": "bool",
              "name": "isExecuted",
              "type": "bool"
            }
          ],
          "internalType": "struct LearnChain.Proposal[]",
          "name": "",
          "type": "tuple[]"
        }
      ],
      "stateMutability": "view",
      "type": "function"
    },
    {
      "inputs": [
        {
          "internalType": "address",
          "name": "_member",
          "type": "address"
        }
      ],
      "name": "getExponentialCost",
      "outputs": [
        {
          "internalType": "uint256",
          "name": "",
          "type": "uint256"
        }
      ],
      "stateMutability": "view",
      "type": "function"
    },
    {
      "inputs": [],
      "name": "getPendingProposals",
      "outputs": [
        {
          "components": [
            {
              "internalType": "uint256",
              "name": "id",
              "type": "uint256"
            },
            {
              "internalType": "string",
              "name": "name",
              "type": "string"
            },
            {
              "internalType": "string",
              "name": "description",
              "type": "string"
            },
            {
              "internalType": "uint256",
              "name": "votedYes",
              "type": "uint256"
            },
            {
              "internalType": "uint256",
              "name": "votedNo",
              "type": "uint256"
            },
            {
              "internalType": "uint256",
              "name": "votingPeriod",
              "type": "uint256"
            },
            {
              "internalType": "address",
              "name": "owner",
              "type": "address"
            },
            {
              "internalType": "uint256",
              "name": "voteCount",
              "type": "uint256"
            },
            {
              "internalType": "uint256",
              "name": "completedOn",
              "type": "uint256"
            },
            {
              "internalType": "bool",
              "name": "isComplete",
              "type": "bool"
            },
            {
              "internalType": "bool",
              "name": "isExecuted",
              "type": "bool"
            }
          ],
          "internalType": "struct LearnChain.Proposal[]",
          "name": "",
          "type": "tuple[]"
        }
      ],
      "stateMutability": "view",
      "type": "function"
    },
    {
      "inputs": [
        {
          "internalType": "address",
          "name": "_member",
          "type": "address"
        }
      ],
      "name": "isMember",
      "outputs": [
        {
          "internalType": "bool",
          "name": "",
          "type": "bool"
        }
      ],
      "stateMutability": "view",
      "type": "function"
    },
    {
      "inputs": [
        {
          "internalType": "uint256",
          "name": "",
          "type": "uint256"
        }
      ],
      "name": "members",
      "outputs": [
        {
          "internalType": "address",
          "name": "",
          "type": "address"
        }
      ],
      "stateMutability": "view",
      "type": "function"
    },
    {
      "inputs": [],
      "name": "name",
      "outputs": [
        {
          "internalType": "string",
          "name": "",
          "type": "string"
        }
      ],
      "stateMutability": "view",
      "type": "function"
    },
    {
      "inputs": [
        {
          "internalType": "address",
          "name": "",
          "type": "address"
        }
      ],
      "name": "proposalOwner",
      "outputs": [
        {
          "internalType": "uint256",
          "name": "id",
          "type": "uint256"
        },
        {
          "internalType": "string",
          "name": "name",
          "type": "string"
        },
        {
          "internalType": "address",
          "name": "owner",
          "type": "address"
        },
        {
          "internalType": "bool",
          "name": "isComplete",
          "type": "bool"
        }
      ],
      "stateMutability": "view",
      "type": "function"
    },
    {
      "inputs": [
        {
          "internalType": "uint256",
          "name": "_proposalId",
          "type": "uint256"
        }
      ],
      "name": "proposalResult",
      "outputs": [
        {
          "internalType": "string",
          "name": "",
          "type": "string"
        }
      ],
      "stateMutability": "view",
      "type": "function"
    },
    {
      "inputs": [
        {
          "internalType": "uint256",
          "name": "",
          "type": "uint256"
        }
      ],
      "name": "proposals",
      "outputs": [
        {
          "internalType": "uint256",
          "name": "id",
          "type": "uint256"
        },
        {
          "internalType": "string",
          "name": "name",
          "type": "string"
        },
        {
          "internalType": "string",
          "name": "description",
          "type": "string"
        },
        {
          "internalType": "uint256",
          "name": "votedYes",
          "type": "uint256"
        },
        {
          "internalType": "uint256",
          "name": "votedNo",
          "type": "uint256"
        },
        {
          "internalType": "uint256",
          "name": "votingPeriod",
          "type": "uint256"
        },
        {
          "internalType": "address",
          "name": "owner",
          "type": "address"
        },
        {
          "internalType": "uint256",
          "name": "voteCount",
          "type": "uint256"
        },
        {
          "internalType": "uint256",
          "name": "completedOn",
          "type": "uint256"
        },
        {
          "internalType": "bool",
          "name": "isComplete",
          "type": "bool"
        },
        {
          "internalType": "bool",
          "name": "isExecuted",
          "type": "bool"
        }
      ],
      "stateMutability": "view",
      "type": "function"
    },
    {
      "inputs": [
        {
          "internalType": "address",
          "name": "memberToRemove",
          "type": "address"
        }
      ],
      "name": "removeMember",
      "outputs": [],
      "stateMutability": "nonpayable",
      "type": "function"
    },
    {
      "inputs": [
        {
          "internalType": "uint256",
          "name": "_proposalId",
          "type": "uint256"
        }
      ],
      "name": "removeProposal",
      "outputs": [],
      "stateMutability": "nonpayable",
      "type": "function"
    },
    {
      "inputs": [],
      "name": "symbol",
      "outputs": [
        {
          "internalType": "string",
          "name": "",
          "type": "string"
        }
      ],
      "stateMutability": "view",
      "type": "function"
    },
    {
      "inputs": [],
      "name": "totalSupply",
      "outputs": [
        {
          "internalType": "uint256",
          "name": "",
          "type": "uint256"
        }
      ],
      "stateMutability": "view",
      "type": "function"
    },
    {
      "inputs": [
        {
          "internalType": "address",
          "name": "to",
          "type": "address"
        },
        {
          "internalType": "uint256",
          "name": "value",
          "type": "uint256"
        }
      ],
      "name": "transfer",
      "outputs": [
        {
          "internalType": "bool",
          "name": "",
          "type": "bool"
        }
      ],
      "stateMutability": "nonpayable",
      "type": "function"
    },
    {
      "inputs": [
        {
          "internalType": "address",
          "name": "from",
          "type": "address"
        },
        {
          "internalType": "address",
          "name": "to",
          "type": "address"
        },
        {
          "internalType": "uint256",
          "name": "value",
          "type": "uint256"
        }
      ],
      "name": "transferFrom",
      "outputs": [
        {
          "internalType": "bool",
          "name": "",
          "type": "bool"
        }
      ],
      "stateMutability": "nonpayable",
      "type": "function"
    },
    {
      "inputs": [
        {
          "internalType": "uint256",
          "name": "_proposalId",
          "type": "uint256"
        },
        {
          "internalType": "enum LearnChain.VotedFor",
          "name": "_voteFor",
          "type": "uint8"
        }
      ],
      "name": "voteForProposal",
      "outputs": [],
      "stateMutability": "nonpayable",
      "type": "function"
    }
  ],
  "bytecode": "0x60806040523480156200001157600080fd5b506040518060400160405280600b81526020017f566f74696e67546f6b656e0000000000000000000000000000000000000000008152506040518060400160405280600381526020017f56544b000000000000000000000000000000000000000000000000000000000081525081600390816200008f9190620006ce565b508060049081620000a19190620006ce565b50505033600560006101000a81548173ffffffffffffffffffffffffffffffffffffffff021916908373ffffffffffffffffffffffffffffffffffffffff1602179055506007339080600181540180825580915050600190039060005260206000200160009091909190916101000a81548173ffffffffffffffffffffffffffffffffffffffff021916908373ffffffffffffffffffffffffffffffffffffffff16021790555062000188336200015d6200018e60201b60201c565b600a6200016b919062000945565b6305f5e1006200017c919062000996565b6200019760201b60201c565b62000ae9565b60006012905090565b600073ffffffffffffffffffffffffffffffffffffffff168273ffffffffffffffffffffffffffffffffffffffff16036200020c5760006040517fec442f0500000000000000000000000000000000000000000000000000000000815260040162000203919062000a26565b60405180910390fd5b62000220600083836200022460201b60201c565b5050565b600073ffffffffffffffffffffffffffffffffffffffff168373ffffffffffffffffffffffffffffffffffffffff16036200027a5780600260008282546200026d919062000a43565b9250508190555062000350565b60008060008573ffffffffffffffffffffffffffffffffffffffff1673ffffffffffffffffffffffffffffffffffffffff1681526020019081526020016000205490508181101562000309578381836040517fe450d38c000000000000000000000000000000000000000000000000000000008152600401620003009392919062000a8f565b60405180910390fd5b8181036000808673ffffffffffffffffffffffffffffffffffffffff1673ffffffffffffffffffffffffffffffffffffffff16815260200190815260200160002081905550505b600073ffffffffffffffffffffffffffffffffffffffff168273ffffffffffffffffffffffffffffffffffffffff16036200039b5780600260008282540392505081905550620003e8565b806000808473ffffffffffffffffffffffffffffffffffffffff1673ffffffffffffffffffffffffffffffffffffffff168152602001908152602001600020600082825401925050819055505b8173ffffffffffffffffffffffffffffffffffffffff168373ffffffffffffffffffffffffffffffffffffffff167fddf252ad1be2c89b69c2b068fc378daa952ba7f163c4a11628f55a4df523b3ef8360405162000447919062000acc565b60405180910390a3505050565b600081519050919050565b7f4e487b7100000000000000000000000000000000000000000000000000000000600052604160045260246000fd5b7f4e487b7100000000000000000000000000000000000000000000000000000000600052602260045260246000fd5b60006002820490506001821680620004d657607f821691505b602082108103620004ec57620004eb6200048e565b5b50919050565b60008190508160005260206000209050919050565b60006020601f8301049050919050565b600082821b905092915050565b600060088302620005567fffffffffffffffffffffffffffffffffffffffffffffffffffffffffffffffff8262000517565b62000562868362000517565b95508019841693508086168417925050509392505050565b6000819050919050565b6000819050919050565b6000620005af620005a9620005a3846200057a565b62000584565b6200057a565b9050919050565b6000819050919050565b620005cb836200058e565b620005e3620005da82620005b6565b84845462000524565b825550505050565b600090565b620005fa620005eb565b62000607818484620005c0565b505050565b5b818110156200062f5762000623600082620005f0565b6001810190506200060d565b5050565b601f8211156200067e576200064881620004f2565b620006538462000507565b8101602085101562000663578190505b6200067b620006728562000507565b8301826200060c565b50505b505050565b600082821c905092915050565b6000620006a36000198460080262000683565b1980831691505092915050565b6000620006be838362000690565b9150826002028217905092915050565b620006d98262000454565b67ffffffffffffffff811115620006f557620006f46200045f565b5b620007018254620004bd565b6200070e82828562000633565b600060209050601f83116001811462000746576000841562000731578287015190505b6200073d8582620006b0565b865550620007ad565b601f1984166200075686620004f2565b60005b82811015620007805784890151825560018201915060208501945060208101905062000759565b86831015620007a057848901516200079c601f89168262000690565b8355505b6001600288020188555050505b505050505050565b7f4e487b7100000000000000000000000000000000000000000000000000000000600052601160045260246000fd5b60008160011c9050919050565b6000808291508390505b600185111562000843578086048111156200081b576200081a620007b5565b5b60018516156200082b5780820291505b80810290506200083b85620007e4565b9450620007fb565b94509492505050565b6000826200085e576001905062000931565b816200086e576000905062000931565b81600181146200088757600281146200089257620008c8565b600191505062000931565b60ff841115620008a757620008a6620007b5565b5b8360020a915084821115620008c157620008c0620007b5565b5b5062000931565b5060208310610133831016604e8410600b8410161715620009025782820a905083811115620008fc57620008fb620007b5565b5b62000931565b620009118484846001620007f1565b925090508184048111156200092b576200092a620007b5565b5b81810290505b9392505050565b600060ff82169050919050565b600062000952826200057a565b91506200095f8362000938565b92506200098e7fffffffffffffffffffffffffffffffffffffffffffffffffffffffffffffffff84846200084c565b905092915050565b6000620009a3826200057a565b9150620009b0836200057a565b9250828202620009c0816200057a565b91508282048414831517620009da57620009d9620007b5565b5b5092915050565b600073ffffffffffffffffffffffffffffffffffffffff82169050919050565b600062000a0e82620009e1565b9050919050565b62000a208162000a01565b82525050565b600060208201905062000a3d600083018462000a15565b92915050565b600062000a50826200057a565b915062000a5d836200057a565b925082820190508082111562000a785762000a77620007b5565b5b92915050565b62000a89816200057a565b82525050565b600060608201905062000aa6600083018662000a15565b62000ab5602083018562000a7e565b62000ac4604083018462000a7e565b949350505050565b600060208201905062000ae3600083018462000a7e565b92915050565b61462b8062000af96000396000f3fe608060405234801561001057600080fd5b50600436106101735760003560e01c806359bb6dfd116100de57806395d89b4111610097578063a9059cbb11610071578063a9059cbb146104a3578063ca6d56dc146104d3578063dd62ed3e146104ef578063dd81d0ac1461051f57610173565b806395d89b4114610437578063a230c52414610455578063a80db6fc1461048557610173565b806359bb6dfd146103535780635daf08ca1461036f5780635dccebba1461039f57806370a08231146103bb578063803a3099146103eb57806383b224411461041b57610173565b806318160ddd1161013057806318160ddd1461026857806323b872dd1461028657806327e235e3146102b6578063313ce567146102e65780634ce4e6c7146103045780634eef546d1461032057610173565b8063013cf08b1461017857806306fdde03146101b2578063095ea7b3146101d05780630b1ca49a146102005780630ce0ebf41461021c5780631022b30b14610238575b600080fd5b610192600480360381019061018d9190612f8e565b61053d565b6040516101a99b9a999897969594939291906130b6565b60405180910390f35b6101ba6106e1565b6040516101c7919061316f565b60405180910390f35b6101ea60048036038101906101e591906131bd565b610773565b6040516101f791906131fd565b60405180910390f35b61021a60048036038101906102159190613218565b610796565b005b6102366004803603810190610231919061337a565b610a41565b005b610252600480360381019061024d9190612f8e565b610d2c565b60405161025f919061316f565b60405180910390f35b610270610eb8565b60405161027d9190613405565b60405180910390f35b6102a0600480360381019061029b9190613420565b610ec2565b6040516102ad91906131fd565b60405180910390f35b6102d060048036038101906102cb9190613218565b610ef1565b6040516102dd9190613405565b60405180910390f35b6102ee610f09565b6040516102fb919061348f565b60405180910390f35b61031e60048036038101906103199190612f8e565b610f12565b005b61033a60048036038101906103359190613218565b611159565b60405161034a94939291906134aa565b60405180910390f35b61036d60048036038101906103689190612f8e565b61123e565b005b61038960048036038101906103849190612f8e565b6114f2565b60405161039691906134f6565b60405180910390f35b6103b960048036038101906103b49190612f8e565b611531565b005b6103d560048036038101906103d09190613218565b6116e0565b6040516103e29190613405565b60405180910390f35b61040560048036038101906104009190613218565b611728565b6040516104129190613405565b60405180910390f35b61043560048036038101906104309190613536565b611810565b005b61043f611d83565b60405161044c919061316f565b60405180910390f35b61046f600480360381019061046a9190613218565b611e15565b60405161047c91906131fd565b60405180910390f35b61048d611f0a565b60405161049a91906137a5565b60405180910390f35b6104bd60048036038101906104b891906131bd565b61224e565b6040516104ca91906131fd565b60405180910390f35b6104ed60048036038101906104e89190613218565b612271565b005b610509600480360381019061050491906137c7565b61241f565b6040516105169190613405565b60405180910390f35b6105276124a6565b60405161053491906137a5565b60405180910390f35b600960205280600052604060002060009150905080600001549080600101805461056690613836565b80601f016020809104026020016040519081016040528092919081815260200182805461059290613836565b80156105df5780601f106105b4576101008083540402835291602001916105df565b820191906000526020600020905b8154815290600101906020018083116105c257829003601f168201915b5050505050908060020180546105f490613836565b80601f016020809104026020016040519081016040528092919081815260200182805461062090613836565b801561066d5780601f106106425761010080835404028352916020019161066d565b820191906000526020600020905b81548152906001019060200180831161065057829003601f168201915b5050505050908060030154908060040154908060050154908060060160009054906101000a900473ffffffffffffffffffffffffffffffffffffffff16908060070154908060080154908060090160009054906101000a900460ff16908060090160019054906101000a900460ff1690508b565b6060600380546106f090613836565b80601f016020809104026020016040519081016040528092919081815260200182805461071c90613836565b80156107695780601f1061073e57610100808354040283529160200191610769565b820191906000526020600020905b81548152906001019060200180831161074c57829003601f168201915b5050505050905090565b60008061077e6127ec565b905061078b8185856127f4565b600191505092915050565b600560009054906101000a900473ffffffffffffffffffffffffffffffffffffffff1673ffffffffffffffffffffffffffffffffffffffff163373ffffffffffffffffffffffffffffffffffffffff1614610826576040517f08c379a000000000000000000000000000000000000000000000000000000000815260040161081d906138d9565b60405180910390fd5b61082f81611e15565b61086e576040517f08c379a000000000000000000000000000000000000000000000000000000000815260040161086590613945565b60405180910390fd5b60005b6007805490508110156109fa578173ffffffffffffffffffffffffffffffffffffffff16600782815481106108a9576108a8613965565b5b9060005260206000200160009054906101000a900473ffffffffffffffffffffffffffffffffffffffff1673ffffffffffffffffffffffffffffffffffffffff16036109e7576007600160078054905061090391906139c3565b8154811061091457610913613965565b5b9060005260206000200160009054906101000a900473ffffffffffffffffffffffffffffffffffffffff166007828154811061095357610952613965565b5b9060005260206000200160006101000a81548173ffffffffffffffffffffffffffffffffffffffff021916908373ffffffffffffffffffffffffffffffffffffffff16021790555060078054806109ad576109ac6139f7565b5b6001900381819060005260206000200160006101000a81549073ffffffffffffffffffffffffffffffffffffffff021916905590556109fa565b80806109f290613a26565b915050610871565b50600860008273ffffffffffffffffffffffffffffffffffffffff1673ffffffffffffffffffffffffffffffffffffffff1681526020019081526020016000206000905550565b600073ffffffffffffffffffffffffffffffffffffffff16600a60003373ffffffffffffffffffffffffffffffffffffffff1673ffffffffffffffffffffffffffffffffffffffff16815260200190815260200160002060020160009054906101000a900473ffffffffffffffffffffffffffffffffffffffff1673ffffffffffffffffffffffffffffffffffffffff1614610b12576040517f08c379a0000000000000000000000000000000000000000000000000000000008152600401610b0990613ae0565b60405180910390fd5b600160066000828254610b259190613b00565b9250508190555060065460096000600654815260200190815260200160002060000181905550826009600060065481526020019081526020016000206001019081610b709190613ce0565b50816009600060065481526020019081526020016000206002019081610b969190613ce0565b50603c81610ba49190613db2565b42610baf9190613b00565b600960006006548152602001908152602001600020600501819055503360096000600654815260200190815260200160002060060160006101000a81548173ffffffffffffffffffffffffffffffffffffffff021916908373ffffffffffffffffffffffffffffffffffffffff160217905550604051806080016040528060065481526020018481526020013373ffffffffffffffffffffffffffffffffffffffff16815260200160001515815250600a60003373ffffffffffffffffffffffffffffffffffffffff1673ffffffffffffffffffffffffffffffffffffffff168152602001908152602001600020600082015181600001556020820151816001019081610cbc9190613ce0565b5060408201518160020160006101000a81548173ffffffffffffffffffffffffffffffffffffffff021916908373ffffffffffffffffffffffffffffffffffffffff16021790555060608201518160020160146101000a81548160ff021916908315150217905550905050505050565b6060600015156009600084815260200190815260200160002060090160009054906101000a900460ff16151503610d98576040517f08c379a0000000000000000000000000000000000000000000000000000000008152600401610d8f90613e40565b60405180910390fd5b600960008381526020019081526020016000206004015460096000848152602001908152602001600020600301541115610e09576040518060400160405280601481526020017f50726f706f73616c2069732061636365707465640000000000000000000000008152509050610eb3565b600960008381526020019081526020016000206004015460096000848152602001908152602001600020600301541015610e7a576040518060400160405280601481526020017f50726f706f73616c2069732052656a65637465640000000000000000000000008152509050610eb3565b6040518060400160405280600d81526020017f50726f706f73616c20546965730000000000000000000000000000000000000081525090505b919050565b6000600254905090565b600080610ecd6127ec565b9050610eda858285612806565b610ee585858561289a565b60019150509392505050565b60086020528060005260406000206000915090505481565b60006012905090565b600560009054906101000a900473ffffffffffffffffffffffffffffffffffffffff1673ffffffffffffffffffffffffffffffffffffffff163373ffffffffffffffffffffffffffffffffffffffff1614610fa2576040517f08c379a0000000000000000000000000000000000000000000000000000000008152600401610f9990613ed2565b60405180910390fd5b600015156009600083815260200190815260200160002060090160009054906101000a900460ff1615150361100c576040517f08c379a000000000000000000000000000000000000000000000000000000000815260040161100390613f3e565b60405180910390fd5b600960008281526020019081526020016000206000808201600090556001820160006110389190612e69565b6002820160006110489190612e69565b6003820160009055600482016000905560058201600090556006820160006101000a81549073ffffffffffffffffffffffffffffffffffffffff0219169055600782016000905560088201600090556009820160006101000a81549060ff02191690556009820160016101000a81549060ff02191690555050600a60003373ffffffffffffffffffffffffffffffffffffffff1673ffffffffffffffffffffffffffffffffffffffff1681526020019081526020016000206000808201600090556001820160006111199190612e69565b6002820160006101000a81549073ffffffffffffffffffffffffffffffffffffffff02191690556002820160146101000a81549060ff0219169055505050565b600a60205280600052604060002060009150905080600001549080600101805461118290613836565b80601f01602080910402602001604051908101604052809291908181526020018280546111ae90613836565b80156111fb5780601f106111d0576101008083540402835291602001916111fb565b820191906000526020600020905b8154815290600101906020018083116111de57829003601f168201915b5050505050908060020160009054906101000a900473ffffffffffffffffffffffffffffffffffffffff16908060020160149054906101000a900460ff16905084565b3373ffffffffffffffffffffffffffffffffffffffff166009600083815260200190815260200160002060060160009054906101000a900473ffffffffffffffffffffffffffffffffffffffff1673ffffffffffffffffffffffffffffffffffffffff1614806112fb5750600560009054906101000a900473ffffffffffffffffffffffffffffffffffffffff1673ffffffffffffffffffffffffffffffffffffffff163373ffffffffffffffffffffffffffffffffffffffff16145b61133a576040517f08c379a000000000000000000000000000000000000000000000000000000000815260040161133190613fd0565b60405180910390fd5b600073ffffffffffffffffffffffffffffffffffffffff166009600083815260200190815260200160002060060160009054906101000a900473ffffffffffffffffffffffffffffffffffffffff1673ffffffffffffffffffffffffffffffffffffffff16036113df576040517f08c379a00000000000000000000000000000000000000000000000000000000081526004016113d69061403c565b60405180910390fd5b426009600060065481526020019081526020016000206005015410611439576040517f08c379a0000000000000000000000000000000000000000000000000000000008152600401611430906140a8565b60405180910390fd5b600015156009600083815260200190815260200160002060090160009054906101000a900460ff161515146114a3576040517f08c379a000000000000000000000000000000000000000000000000000000000815260040161149a90614114565b60405180910390fd5b600160096000600654815260200190815260200160002060090160006101000a81548160ff02191690831515021790555042600960008381526020019081526020016000206008018190555050565b6007818154811061150257600080fd5b906000526020600020016000915054906101000a900473ffffffffffffffffffffffffffffffffffffffff1681565b600960008281526020019081526020016000206004015460096000838152602001908152602001600020600301541161159f576040517f08c379a0000000000000000000000000000000000000000000000000000000008152600401611596906141a6565b60405180910390fd5b600073ffffffffffffffffffffffffffffffffffffffff166009600083815260200190815260200160002060060160009054906101000a900473ffffffffffffffffffffffffffffffffffffffff1673ffffffffffffffffffffffffffffffffffffffff1603611644576040517f08c379a000000000000000000000000000000000000000000000000000000000815260040161163b9061403c565b60405180910390fd5b600015156009600083815260200190815260200160002060090160009054906101000a900460ff161515036116ae576040517f08c379a00000000000000000000000000000000000000000000000000000000081526004016116a590613f3e565b60405180910390fd5b60016009600083815260200190815260200160002060090160016101000a81548160ff02191690831515021790555050565b60008060008373ffffffffffffffffffffffffffffffffffffffff1673ffffffffffffffffffffffffffffffffffffffff168152602001908152602001600020549050919050565b600080600090506000600190505b6006548111611806576000600b60008673ffffffffffffffffffffffffffffffffffffffff1673ffffffffffffffffffffffffffffffffffffffff1681526020019081526020016000206000018054905011156117f35760006002600b60008773ffffffffffffffffffffffffffffffffffffffff1673ffffffffffffffffffffffffffffffffffffffff168152602001908152602001600020600001805490506117e191906142f9565b905080836117ef9190613b00565b9250505b80806117fe90613a26565b915050611736565b5080915050919050565b6000600181111561182457611823614344565b5b81600181111561183757611836614344565b5b1480611866575060018081111561185157611850614344565b5b81600181111561186457611863614344565b5b145b6118a5576040517f08c379a000000000000000000000000000000000000000000000000000000000815260040161189c906143bf565b60405180910390fd5b600073ffffffffffffffffffffffffffffffffffffffff166009600084815260200190815260200160002060060160009054906101000a900473ffffffffffffffffffffffffffffffffffffffff1673ffffffffffffffffffffffffffffffffffffffff160361194a576040517f08c379a00000000000000000000000000000000000000000000000000000000081526004016119419061403c565b60405180910390fd5b4260096000600654815260200190815260200160002060050154116119a4576040517f08c379a000000000000000000000000000000000000000000000000000000000815260040161199b9061442b565b60405180910390fd5b6000805b600b60003373ffffffffffffffffffffffffffffffffffffffff1673ffffffffffffffffffffffffffffffffffffffff16815260200190815260200160002060000180549050811015611a765783600b60003373ffffffffffffffffffffffffffffffffffffffff1673ffffffffffffffffffffffffffffffffffffffff1681526020019081526020016000206000018281548110611a4a57611a49613965565b5b906000526020600020015403611a635760019150611a76565b8080611a6e90613a26565b9150506119a8565b5080611b9557600b60003373ffffffffffffffffffffffffffffffffffffffff1673ffffffffffffffffffffffffffffffffffffffff168152602001908152602001600020600001839080600181540180825580915050600190039060005260206000200160009091909190915055611aee3361298e565b611b19600560009054906101000a900473ffffffffffffffffffffffffffffffffffffffff1661298e565b611b4233611b25610f09565b600a611b3191906142f9565b600a611b3d9190613db2565b610773565b50611b8f33600560009054906101000a900473ffffffffffffffffffffffffffffffffffffffff16611b72610f09565b600a611b7e91906142f9565b600a611b8a9190613db2565b610ec2565b50611c59565b6000611ba033611728565b600a611bac9190613db2565b9050611bb73361298e565b611be2600560009054906101000a900473ffffffffffffffffffffffffffffffffffffffff1661298e565b611c0a33611bee610f09565b600a611bfa91906142f9565b83611c059190613db2565b610773565b50611c5633600560009054906101000a900473ffffffffffffffffffffffffffffffffffffffff16611c3a610f09565b600a611c4691906142f9565b84611c519190613db2565b610ec2565b50505b600b60003373ffffffffffffffffffffffffffffffffffffffff1673ffffffffffffffffffffffffffffffffffffffff16815260200190815260200160002060000183908060018154018082558091505060019003906000526020600020016000909190919091505560006001811115611cd657611cd5614344565b5b826001811115611ce957611ce8614344565b5b03611d21576001600960008581526020019081526020016000206003016000828254611d159190613b00565b92505081905550611d50565b6001600960008581526020019081526020016000206004016000828254611d489190613b00565b925050819055505b6001600960008581526020019081526020016000206007016000828254611d779190613b00565b92505081905550505050565b606060048054611d9290613836565b80601f0160208091040260200160405190810160405280929190818152602001828054611dbe90613836565b8015611e0b5780601f10611de057610100808354040283529160200191611e0b565b820191906000526020600020905b815481529060010190602001808311611dee57829003601f168201915b5050505050905090565b600080600090505b600780549050811015611eff57611e7160078281548110611e4157611e40613965565b5b9060005260206000200160009054906101000a900473ffffffffffffffffffffffffffffffffffffffff1661298e565b8273ffffffffffffffffffffffffffffffffffffffff1660078281548110611e9c57611e9b613965565b5b9060005260206000200160009054906101000a900473ffffffffffffffffffffffffffffffffffffffff1673ffffffffffffffffffffffffffffffffffffffff1603611eec576001915050611f05565b8080611ef790613a26565b915050611e1d565b50600090505b919050565b6060600080600190505b6006548111611f67576009600082815260200190815260200160002060090160009054906101000a900460ff16611f54578180611f5090613a26565b9250505b8080611f5f90613a26565b915050611f14565b5060008167ffffffffffffffff811115611f8457611f8361324f565b5b604051908082528060200260200182016040528015611fbd57816020015b611faa612ea9565b815260200190600190039081611fa25790505b509050600080600190505b6006548111612244576009600082815260200190815260200160002060090160009054906101000a900460ff166122315760096000828152602001908152602001600020604051806101600160405290816000820154815260200160018201805461203290613836565b80601f016020809104026020016040519081016040528092919081815260200182805461205e90613836565b80156120ab5780601f10612080576101008083540402835291602001916120ab565b820191906000526020600020905b81548152906001019060200180831161208e57829003601f168201915b505050505081526020016002820180546120c490613836565b80601f01602080910402602001604051908101604052809291908181526020018280546120f090613836565b801561213d5780601f106121125761010080835404028352916020019161213d565b820191906000526020600020905b81548152906001019060200180831161212057829003601f168201915b505050505081526020016003820154815260200160048201548152602001600582015481526020016006820160009054906101000a900473ffffffffffffffffffffffffffffffffffffffff1673ffffffffffffffffffffffffffffffffffffffff1673ffffffffffffffffffffffffffffffffffffffff16815260200160078201548152602001600882015481526020016009820160009054906101000a900460ff161515151581526020016009820160019054906101000a900460ff16151515158152505083838151811061221757612216613965565b5b6020026020010181905250818061222d90613a26565b9250505b808061223c90613a26565b915050611fc8565b5081935050505090565b6000806122596127ec565b905061226681858561289a565b600191505092915050565b600560009054906101000a900473ffffffffffffffffffffffffffffffffffffffff1673ffffffffffffffffffffffffffffffffffffffff163373ffffffffffffffffffffffffffffffffffffffff1614612301576040517f08c379a00000000000000000000000000000000000000000000000000000000081526004016122f890614497565b60405180910390fd5b61230a81611e15565b1561234a576040517f08c379a000000000000000000000000000000000000000000000000000000000815260040161234190614503565b60405180910390fd5b6007819080600181540180825580915050600190039060005260206000200160009091909190916101000a81548173ffffffffffffffffffffffffffffffffffffffff021916908373ffffffffffffffffffffffffffffffffffffffff16021790555060006123b7610f09565b600a6123c391906142f9565b6113886123d09190613db2565b90506123dc828261224e565b61241b576040517f08c379a00000000000000000000000000000000000000000000000000000000081526004016124129061456f565b60405180910390fd5b5050565b6000600160008473ffffffffffffffffffffffffffffffffffffffff1673ffffffffffffffffffffffffffffffffffffffff16815260200190815260200160002060008373ffffffffffffffffffffffffffffffffffffffff1673ffffffffffffffffffffffffffffffffffffffff16815260200190815260200160002054905092915050565b6060600080600190505b6006548111612504576009600082815260200190815260200160002060090160009054906101000a900460ff16156124f15781806124ed90613a26565b9250505b80806124fc90613a26565b9150506124b0565b5060008167ffffffffffffffff8111156125215761252061324f565b5b60405190808252806020026020018201604052801561255a57816020015b612547612ea9565b81526020019060019003908161253f5790505b509050600080600190505b60065481116127e2576009600082815260200190815260200160002060090160009054906101000a900460ff16156127cf576009600082815260200190815260200160002060405180610160016040529081600082015481526020016001820180546125d090613836565b80601f01602080910402602001604051908101604052809291908181526020018280546125fc90613836565b80156126495780601f1061261e57610100808354040283529160200191612649565b820191906000526020600020905b81548152906001019060200180831161262c57829003601f168201915b5050505050815260200160028201805461266290613836565b80601f016020809104026020016040519081016040528092919081815260200182805461268e90613836565b80156126db5780601f106126b0576101008083540402835291602001916126db565b820191906000526020600020905b8154815290600101906020018083116126be57829003601f168201915b505050505081526020016003820154815260200160048201548152602001600582015481526020016006820160009054906101000a900473ffffffffffffffffffffffffffffffffffffffff1673ffffffffffffffffffffffffffffffffffffffff1673ffffffffffffffffffffffffffffffffffffffff16815260200160078201548152602001600882015481526020016009820160009054906101000a900460ff161515151581526020016009820160019054906101000a900460ff1615151515815250508383815181106127b5576127b4613965565b5b602002602001018190525081806127cb90613a26565b9250505b80806127da90613a26565b915050612565565b5081935050505090565b600033905090565b6128018383836001612a27565b505050565b6000612812848461241f565b90507fffffffffffffffffffffffffffffffffffffffffffffffffffffffffffffffff81146128945781811015612884578281836040517ffb8f41b200000000000000000000000000000000000000000000000000000000815260040161287b9392919061458f565b60405180910390fd5b61289384848484036000612a27565b5b50505050565b600073ffffffffffffffffffffffffffffffffffffffff168373ffffffffffffffffffffffffffffffffffffffff160361290c5760006040517f96c6fd1e00000000000000000000000000000000000000000000000000000000815260040161290391906134f6565b60405180910390fd5b600073ffffffffffffffffffffffffffffffffffffffff168273ffffffffffffffffffffffffffffffffffffffff160361297e5760006040517fec442f0500000000000000000000000000000000000000000000000000000000815260040161297591906134f6565b60405180910390fd5b612989838383612bfe565b505050565b612a24816040516024016129a291906134f6565b6040516020818303038152906040527f2c2ecbc2000000000000000000000000000000000000000000000000000000007bffffffffffffffffffffffffffffffffffffffffffffffffffffffff19166020820180517bffffffffffffffffffffffffffffffffffffffffffffffffffffffff8381831617835250505050612e23565b50565b600073ffffffffffffffffffffffffffffffffffffffff168473ffffffffffffffffffffffffffffffffffffffff1603612a995760006040517fe602df05000000000000000000000000000000000000000000000000000000008152600401612a9091906134f6565b60405180910390fd5b600073ffffffffffffffffffffffffffffffffffffffff168373ffffffffffffffffffffffffffffffffffffffff1603612b0b5760006040517f94280d62000000000000000000000000000000000000000000000000000000008152600401612b0291906134f6565b60405180910390fd5b81600160008673ffffffffffffffffffffffffffffffffffffffff1673ffffffffffffffffffffffffffffffffffffffff16815260200190815260200160002060008573ffffffffffffffffffffffffffffffffffffffff1673ffffffffffffffffffffffffffffffffffffffff168152602001908152602001600020819055508015612bf8578273ffffffffffffffffffffffffffffffffffffffff168473ffffffffffffffffffffffffffffffffffffffff167f8c5be1e5ebec7d5bd14f71427d1e84f3dd0314c0f7b2291e5b200ac8c7c3b92584604051612bef9190613405565b60405180910390a35b50505050565b600073ffffffffffffffffffffffffffffffffffffffff168373ffffffffffffffffffffffffffffffffffffffff1603612c50578060026000828254612c449190613b00565b92505081905550612d23565b60008060008573ffffffffffffffffffffffffffffffffffffffff1673ffffffffffffffffffffffffffffffffffffffff16815260200190815260200160002054905081811015612cdc578381836040517fe450d38c000000000000000000000000000000000000000000000000000000008152600401612cd39392919061458f565b60405180910390fd5b8181036000808673ffffffffffffffffffffffffffffffffffffffff1673ffffffffffffffffffffffffffffffffffffffff16815260200190815260200160002081905550505b600073ffffffffffffffffffffffffffffffffffffffff168273ffffffffffffffffffffffffffffffffffffffff1603612d6c5780600260008282540392505081905550612db9565b806000808473ffffffffffffffffffffffffffffffffffffffff1673ffffffffffffffffffffffffffffffffffffffff168152602001908152602001600020600082825401925050819055505b8173ffffffffffffffffffffffffffffffffffffffff168373ffffffffffffffffffffffffffffffffffffffff167fddf252ad1be2c89b69c2b068fc378daa952ba7f163c4a11628f55a4df523b3ef83604051612e169190613405565b60405180910390a3505050565b612e3a81612e32612e3d612e5e565b63ffffffff16565b50565b60006a636f6e736f6c652e6c6f679050600080835160208501845afa505050565b612f1d819050919050565b508054612e7590613836565b6000825580601f10612e875750612ea6565b601f016020900490600052602060002090810190612ea59190612f27565b5b50565b604051806101600160405280600081526020016060815260200160608152602001600081526020016000815260200160008152602001600073ffffffffffffffffffffffffffffffffffffffff16815260200160008152602001600081526020016000151581526020016000151581525090565b612f256145c6565b565b5b80821115612f40576000816000905550600101612f28565b5090565b6000604051905090565b600080fd5b600080fd5b6000819050919050565b612f6b81612f58565b8114612f7657600080fd5b50565b600081359050612f8881612f62565b92915050565b600060208284031215612fa457612fa3612f4e565b5b6000612fb284828501612f79565b91505092915050565b612fc481612f58565b82525050565b600081519050919050565b600082825260208201905092915050565b60005b83811015613004578082015181840152602081019050612fe9565b60008484015250505050565b6000601f19601f8301169050919050565b600061302c82612fca565b6130368185612fd5565b9350613046818560208601612fe6565b61304f81613010565b840191505092915050565b600073ffffffffffffffffffffffffffffffffffffffff82169050919050565b60006130858261305a565b9050919050565b6130958161307a565b82525050565b60008115159050919050565b6130b08161309b565b82525050565b6000610160820190506130cc600083018e612fbb565b81810360208301526130de818d613021565b905081810360408301526130f2818c613021565b9050613101606083018b612fbb565b61310e608083018a612fbb565b61311b60a0830189612fbb565b61312860c083018861308c565b61313560e0830187612fbb565b613143610100830186612fbb565b6131516101208301856130a7565b61315f6101408301846130a7565b9c9b505050505050505050505050565b600060208201905081810360008301526131898184613021565b905092915050565b61319a8161307a565b81146131a557600080fd5b50565b6000813590506131b781613191565b92915050565b600080604083850312156131d4576131d3612f4e565b5b60006131e2858286016131a8565b92505060206131f385828601612f79565b9150509250929050565b600060208201905061321260008301846130a7565b92915050565b60006020828403121561322e5761322d612f4e565b5b600061323c848285016131a8565b91505092915050565b600080fd5b600080fd5b7f4e487b7100000000000000000000000000000000000000000000000000000000600052604160045260246000fd5b61328782613010565b810181811067ffffffffffffffff821117156132a6576132a561324f565b5b80604052505050565b60006132b9612f44565b90506132c5828261327e565b919050565b600067ffffffffffffffff8211156132e5576132e461324f565b5b6132ee82613010565b9050602081019050919050565b82818337600083830152505050565b600061331d613318846132ca565b6132af565b9050828152602081018484840111156133395761333861324a565b5b6133448482856132fb565b509392505050565b600082601f83011261336157613360613245565b5b813561337184826020860161330a565b91505092915050565b60008060006060848603121561339357613392612f4e565b5b600084013567ffffffffffffffff8111156133b1576133b0612f53565b5b6133bd8682870161334c565b935050602084013567ffffffffffffffff8111156133de576133dd612f53565b5b6133ea8682870161334c565b92505060406133fb86828701612f79565b9150509250925092565b600060208201905061341a6000830184612fbb565b92915050565b60008060006060848603121561343957613438612f4e565b5b6000613447868287016131a8565b9350506020613458868287016131a8565b925050604061346986828701612f79565b9150509250925092565b600060ff82169050919050565b61348981613473565b82525050565b60006020820190506134a46000830184613480565b92915050565b60006080820190506134bf6000830187612fbb565b81810360208301526134d18186613021565b90506134e0604083018561308c565b6134ed60608301846130a7565b95945050505050565b600060208201905061350b600083018461308c565b92915050565b6002811061351e57600080fd5b50565b60008135905061353081613511565b92915050565b6000806040838503121561354d5761354c612f4e565b5b600061355b85828601612f79565b925050602061356c85828601613521565b9150509250929050565b600081519050919050565b600082825260208201905092915050565b6000819050602082019050919050565b6135ab81612f58565b82525050565b600082825260208201905092915050565b60006135cd82612fca565b6135d781856135b1565b93506135e7818560208601612fe6565b6135f081613010565b840191505092915050565b6136048161307a565b82525050565b6136138161309b565b82525050565b60006101608301600083015161363260008601826135a2565b506020830151848203602086015261364a82826135c2565b9150506040830151848203604086015261366482826135c2565b915050606083015161367960608601826135a2565b50608083015161368c60808601826135a2565b5060a083015161369f60a08601826135a2565b5060c08301516136b260c08601826135fb565b5060e08301516136c560e08601826135a2565b506101008301516136da6101008601826135a2565b506101208301516136ef61012086018261360a565b5061014083015161370461014086018261360a565b508091505092915050565b600061371b8383613619565b905092915050565b6000602082019050919050565b600061373b82613576565b6137458185613581565b93508360208202850161375785613592565b8060005b858110156137935784840389528151613774858261370f565b945061377f83613723565b925060208a0199505060018101905061375b565b50829750879550505050505092915050565b600060208201905081810360008301526137bf8184613730565b905092915050565b600080604083850312156137de576137dd612f4e565b5b60006137ec858286016131a8565b92505060206137fd858286016131a8565b9150509250929050565b7f4e487b7100000000000000000000000000000000000000000000000000000000600052602260045260246000fd5b6000600282049050600182168061384e57607f821691505b60208210810361386157613860613807565b5b50919050565b7f4f6e6c79207468652061646d696e2063616e2072656d6f7665206d656d62657260008201527f7300000000000000000000000000000000000000000000000000000000000000602082015250565b60006138c3602183612fd5565b91506138ce82613867565b604082019050919050565b600060208201905081810360008301526138f2816138b6565b9050919050565b7f4d656d626572206e6f7420666f756e6400000000000000000000000000000000600082015250565b600061392f601083612fd5565b915061393a826138f9565b602082019050919050565b6000602082019050818103600083015261395e81613922565b9050919050565b7f4e487b7100000000000000000000000000000000000000000000000000000000600052603260045260246000fd5b7f4e487b7100000000000000000000000000000000000000000000000000000000600052601160045260246000fd5b60006139ce82612f58565b91506139d983612f58565b92508282039050818111156139f1576139f0613994565b5b92915050565b7f4e487b7100000000000000000000000000000000000000000000000000000000600052603160045260246000fd5b6000613a3182612f58565b91507fffffffffffffffffffffffffffffffffffffffffffffffffffffffffffffffff8203613a6357613a62613994565b5b600182019050919050565b7f43616e207375626d6974206f6e6c79206f6e652070726f706f73616c2061742060008201527f612074696d650000000000000000000000000000000000000000000000000000602082015250565b6000613aca602683612fd5565b9150613ad582613a6e565b604082019050919050565b60006020820190508181036000830152613af981613abd565b9050919050565b6000613b0b82612f58565b9150613b1683612f58565b9250828201905080821115613b2e57613b2d613994565b5b92915050565b60008190508160005260206000209050919050565b60006020601f8301049050919050565b600082821b905092915050565b600060088302613b967fffffffffffffffffffffffffffffffffffffffffffffffffffffffffffffffff82613b59565b613ba08683613b59565b95508019841693508086168417925050509392505050565b6000819050919050565b6000613bdd613bd8613bd384612f58565b613bb8565b612f58565b9050919050565b6000819050919050565b613bf783613bc2565b613c0b613c0382613be4565b848454613b66565b825550505050565b600090565b613c20613c13565b613c2b818484613bee565b505050565b5b81811015613c4f57613c44600082613c18565b600181019050613c31565b5050565b601f821115613c9457613c6581613b34565b613c6e84613b49565b81016020851015613c7d578190505b613c91613c8985613b49565b830182613c30565b50505b505050565b600082821c905092915050565b6000613cb760001984600802613c99565b1980831691505092915050565b6000613cd08383613ca6565b9150826002028217905092915050565b613ce982612fca565b67ffffffffffffffff811115613d0257613d0161324f565b5b613d0c8254613836565b613d17828285613c53565b600060209050601f831160018114613d4a5760008415613d38578287015190505b613d428582613cc4565b865550613daa565b601f198416613d5886613b34565b60005b82811015613d8057848901518255600182019150602085019450602081019050613d5b565b86831015613d9d5784890151613d99601f891682613ca6565b8355505b6001600288020188555050505b505050505050565b6000613dbd82612f58565b9150613dc883612f58565b9250828202613dd681612f58565b91508282048414831517613ded57613dec613994565b5b5092915050565b7f50726f706f73616c206e6f7420636f6d706c6574656420796574000000000000600082015250565b6000613e2a601a83612fd5565b9150613e3582613df4565b602082019050919050565b60006020820190508181036000830152613e5981613e1d565b9050919050565b7f4f6e6c792070726f706f73616c2063726561746f72206f722061646d696e206360008201527f616e2072656d6f76650000000000000000000000000000000000000000000000602082015250565b6000613ebc602983612fd5565b9150613ec782613e60565b604082019050919050565b60006020820190508181036000830152613eeb81613eaf565b9050919050565b7f50726f706f73616c206973206e6f7420636f6d706c6574656420796574000000600082015250565b6000613f28601d83612fd5565b9150613f3382613ef2565b602082019050919050565b60006020820190508181036000830152613f5781613f1b565b9050919050565b7f4f6e6c792070726f706f73616c2063726561746f72206f722061646d696e206360008201527f616e206d61726b20636f6d706c65746500000000000000000000000000000000602082015250565b6000613fba603083612fd5565b9150613fc582613f5e565b604082019050919050565b60006020820190508181036000830152613fe981613fad565b9050919050565b7f50726f706f73616c20646f6573206e6f74206578697374000000000000000000600082015250565b6000614026601783612fd5565b915061403182613ff0565b602082019050919050565b6000602082019050818103600083015261405581614019565b9050919050565b7f566f74696e6720706572696f64206e6f7420656e646564207965740000000000600082015250565b6000614092601b83612fd5565b915061409d8261405c565b602082019050919050565b600060208201905081810360008301526140c181614085565b9050919050565b7f50726f706f73616c20616c7265616479206d61726b656420636f6d706c657465600082015250565b60006140fe602083612fd5565b9150614109826140c8565b602082019050919050565b6000602082019050818103600083015261412d816140f1565b9050919050565b7f44656e6965642050726f706f73616c2063616e2774206265206578656375746560008201527f6400000000000000000000000000000000000000000000000000000000000000602082015250565b6000614190602183612fd5565b915061419b82614134565b604082019050919050565b600060208201905081810360008301526141bf81614183565b9050919050565b60008160011c9050919050565b6000808291508390505b600185111561421d578086048111156141f9576141f8613994565b5b60018516156142085780820291505b8081029050614216856141c6565b94506141dd565b94509492505050565b60008261423657600190506142f2565b8161424457600090506142f2565b816001811461425a576002811461426457614293565b60019150506142f2565b60ff84111561427657614275613994565b5b8360020a91508482111561428d5761428c613994565b5b506142f2565b5060208310610133831016604e8410600b84101617156142c85782820a9050838111156142c3576142c2613994565b5b6142f2565b6142d584848460016141d3565b925090508184048111156142ec576142eb613994565b5b81810290505b9392505050565b600061430482612f58565b915061430f83613473565b925061433c7fffffffffffffffffffffffffffffffffffffffffffffffffffffffffffffffff8484614226565b905092915050565b7f4e487b7100000000000000000000000000000000000000000000000000000000600052602160045260246000fd5b7f4f6e6c7920796573283029206f72206e6f283129206163636570746564000000600082015250565b60006143a9601d83612fd5565b91506143b482614373565b602082019050919050565b600060208201905081810360008301526143d88161439c565b9050919050565b7f566f74696e6720706572696f6420656e64656400000000000000000000000000600082015250565b6000614415601383612fd5565b9150614420826143df565b602082019050919050565b6000602082019050818103600083015261444481614408565b9050919050565b7f4f6e6c79207468652061646d696e2063616e20616464206d656d626572730000600082015250565b6000614481601e83612fd5565b915061448c8261444b565b602082019050919050565b600060208201905081810360008301526144b081614474565b9050919050565b7f4d656d62657220616c7265616479206578697374730000000000000000000000600082015250565b60006144ed601583612fd5565b91506144f8826144b7565b602082019050919050565b6000602082019050818103600083015261451c816144e0565b9050919050565b7f546f6b656e207472616e73666572206661696c65640000000000000000000000600082015250565b6000614559601583612fd5565b915061456482614523565b602082019050919050565b600060208201905081810360008301526145888161454c565b9050919050565b60006060820190506145a4600083018661308c565b6145b16020830185612fbb565b6145be6040830184612fbb565b949350505050565b7f4e487b7100000000000000000000000000000000000000000000000000000000600052605160045260246000fdfea26469706673582212206b8513e25e7f46f2c7cb74778dffb50d9fad59b77ccfe4ac397517e6f180d74864736f6c63430008140033",
  "linkReferences": {},
  "deployedLinkReferences": {}
}